{
  "_format": "hh-sol-artifact-1",
  "contractName": "RitualWrapped",
  "sourceName": "contracts/RitualWrapped.sol",
  "abi": [
    {
      "inputs": [],
      "stateMutability": "nonpayable",
      "type": "constructor"
    },
    {
      "inputs": [
        {
          "internalType": "address",
          "name": "owner",
          "type": "address"
        }
      ],
      "name": "OwnableInvalidOwner",
      "type": "error"
    },
    {
      "inputs": [
        {
          "internalType": "address",
          "name": "account",
          "type": "address"
        }
      ],
      "name": "OwnableUnauthorizedAccount",
      "type": "error"
    },
    {
      "anonymous": false,
      "inputs": [
        {
          "indexed": true,
          "internalType": "address",
          "name": "previousOwner",
          "type": "address"
        },
        {
          "indexed": true,
          "internalType": "address",
          "name": "newOwner",
          "type": "address"
        }
      ],
      "name": "OwnershipTransferred",
      "type": "event"
    },
    {
      "anonymous": false,
      "inputs": [
        {
          "indexed": true,
          "internalType": "address",
          "name": "wallet",
          "type": "address"
        },
        {
          "indexed": false,
          "internalType": "uint256",
          "name": "totalTransactions",
          "type": "uint256"
        },
        {
          "indexed": false,
          "internalType": "uint256",
          "name": "activityScore",
          "type": "uint256"
        },
        {
          "indexed": false,
          "internalType": "string",
          "name": "activityLevel",
          "type": "string"
        },
        {
          "indexed": false,
          "internalType": "uint256",
          "name": "timestamp",
          "type": "uint256"
        }
      ],
      "name": "WrappedClaimed",
      "type": "event"
    },
    {
      "inputs": [
        {
          "internalType": "uint256",
          "name": "_totalTransactions",
          "type": "uint256"
        },
        {
          "internalType": "uint256",
          "name": "_totalSent",
          "type": "uint256"
        },
        {
          "internalType": "uint256",
          "name": "_totalReceived",
          "type": "uint256"
        },
        {
          "internalType": "uint256",
          "name": "_totalGasSpent",
          "type": "uint256"
        },
        {
          "internalType": "uint256",
          "name": "_largestTx",
          "type": "uint256"
        },
        {
          "internalType": "uint256",
          "name": "_walletAgeDays",
          "type": "uint256"
        },
        {
          "internalType": "uint256",
          "name": "_uniqueContracts",
          "type": "uint256"
        },
        {
          "internalType": "uint256",
          "name": "_activityScore",
          "type": "uint256"
        },
        {
          "internalType": "string",
          "name": "_activityLevel",
          "type": "string"
        },
        {
          "internalType": "string",
          "name": "_funFact",
          "type": "string"
        }
      ],
      "name": "claimWrapped",
      "outputs": [],
      "stateMutability": "nonpayable",
      "type": "function"
    },
    {
      "inputs": [
        {
          "internalType": "uint256",
          "name": "",
          "type": "uint256"
        }
      ],
      "name": "claimers",
      "outputs": [
        {
          "internalType": "address",
          "name": "",
          "type": "address"
        }
      ],
      "stateMutability": "view",
      "type": "function"
    },
    {
      "inputs": [
        {
          "internalType": "uint256",
          "name": "_offset",
          "type": "uint256"
        },
        {
          "internalType": "uint256",
          "name": "_limit",
          "type": "uint256"
        }
      ],
      "name": "getClaimers",
      "outputs": [
        {
          "internalType": "address[]",
          "name": "",
          "type": "address[]"
        }
      ],
      "stateMutability": "view",
      "type": "function"
    },
    {
      "inputs": [],
      "name": "getTotalClaims",
      "outputs": [
        {
          "internalType": "uint256",
          "name": "",
          "type": "uint256"
        }
      ],
      "stateMutability": "view",
      "type": "function"
    },
    {
      "inputs": [
        {
          "internalType": "address",
          "name": "_address",
          "type": "address"
        }
      ],
      "name": "getWrappedData",
      "outputs": [
        {
          "components": [
            {
              "internalType": "address",
              "name": "wallet",
              "type": "address"
            },
            {
              "internalType": "uint256",
              "name": "totalTransactions",
              "type": "uint256"
            },
            {
              "internalType": "uint256",
              "name": "totalSent",
              "type": "uint256"
            },
            {
              "internalType": "uint256",
              "name": "totalReceived",
              "type": "uint256"
            },
            {
              "internalType": "uint256",
              "name": "totalGasSpent",
              "type": "uint256"
            },
            {
              "internalType": "uint256",
              "name": "largestTx",
              "type": "uint256"
            },
            {
              "internalType": "uint256",
              "name": "walletAgeDays",
              "type": "uint256"
            },
            {
              "internalType": "uint256",
              "name": "uniqueContracts",
              "type": "uint256"
            },
            {
              "internalType": "uint256",
              "name": "activityScore",
              "type": "uint256"
            },
            {
              "internalType": "string",
              "name": "activityLevel",
              "type": "string"
            },
            {
              "internalType": "string",
              "name": "funFact",
              "type": "string"
            },
            {
              "internalType": "uint256",
              "name": "claimedAt",
              "type": "uint256"
            },
            {
              "internalType": "uint256",
              "name": "blockNumber",
              "type": "uint256"
            },
            {
              "internalType": "bool",
              "name": "exists",
              "type": "bool"
            }
          ],
          "internalType": "struct RitualWrapped.WrappedData",
          "name": "",
          "type": "tuple"
        }
      ],
      "stateMutability": "view",
      "type": "function"
    },
    {
      "inputs": [
        {
          "internalType": "address",
          "name": "_address",
          "type": "address"
        }
      ],
      "name": "hasClaimed",
      "outputs": [
        {
          "internalType": "bool",
          "name": "",
          "type": "bool"
        }
      ],
      "stateMutability": "view",
      "type": "function"
    },
    {
      "inputs": [],
      "name": "owner",
      "outputs": [
        {
          "internalType": "address",
          "name": "",
          "type": "address"
        }
      ],
      "stateMutability": "view",
      "type": "function"
    },
    {
      "inputs": [],
      "name": "renounceOwnership",
      "outputs": [],
      "stateMutability": "nonpayable",
      "type": "function"
    },
    {
      "inputs": [],
      "name": "totalClaims",
      "outputs": [
        {
          "internalType": "uint256",
          "name": "",
          "type": "uint256"
        }
      ],
      "stateMutability": "view",
      "type": "function"
    },
    {
      "inputs": [],
      "name": "totalGasUsed",
      "outputs": [
        {
          "internalType": "uint256",
          "name": "",
          "type": "uint256"
        }
      ],
      "stateMutability": "view",
      "type": "function"
    },
    {
      "inputs": [
        {
          "internalType": "address",
          "name": "newOwner",
          "type": "address"
        }
      ],
      "name": "transferOwnership",
      "outputs": [],
      "stateMutability": "nonpayable",
      "type": "function"
    },
    {
      "inputs": [
        {
          "internalType": "address",
          "name": "",
          "type": "address"
        }
      ],
      "name": "wrappedData",
      "outputs": [
        {
          "internalType": "address",
          "name": "wallet",
          "type": "address"
        },
        {
          "internalType": "uint256",
          "name": "totalTransactions",
          "type": "uint256"
        },
        {
          "internalType": "uint256",
          "name": "totalSent",
          "type": "uint256"
        },
        {
          "internalType": "uint256",
          "name": "totalReceived",
          "type": "uint256"
        },
        {
          "internalType": "uint256",
          "name": "totalGasSpent",
          "type": "uint256"
        },
        {
          "internalType": "uint256",
          "name": "largestTx",
          "type": "uint256"
        },
        {
          "internalType": "uint256",
          "name": "walletAgeDays",
          "type": "uint256"
        },
        {
          "internalType": "uint256",
          "name": "uniqueContracts",
          "type": "uint256"
        },
        {
          "internalType": "uint256",
          "name": "activityScore",
          "type": "uint256"
        },
        {
          "internalType": "string",
          "name": "activityLevel",
          "type": "string"
        },
        {
          "internalType": "string",
          "name": "funFact",
          "type": "string"
        },
        {
          "internalType": "uint256",
          "name": "claimedAt",
          "type": "uint256"
        },
        {
          "internalType": "uint256",
          "name": "blockNumber",
          "type": "uint256"
        },
        {
          "internalType": "bool",
          "name": "exists",
          "type": "bool"
        }
      ],
      "stateMutability": "view",
      "type": "function"
    }
  ],
  "bytecode": "0x608060405234801561000f575f80fd5b50338061003557604051631e4fbdf760e01b81525f600482015260240160405180910390fd5b61003e81610044565b50610093565b5f80546001600160a01b038381166001600160a01b0319831681178455604051919092169283917f8be0079c531659141344cd1fd0a4f28419497f9722a3daafe3b4186f6b6457e09190a35050565b611087806100a05f395ff3fe608060405234801561000f575f80fd5b50600436106100b1575f3560e01c80638da5cb5b1161006e5780638da5cb5b1461016157806398adcc9714610185578063994159ba146101a557806399ae559d146101c55780639fbefb26146101d8578063f2fde38b146101e1575f80fd5b8063150179b4146100b557806316daa23b146100eb57806341c61383146100fd5780634349138c14610106578063715018a61461011b57806373b2e80e14610123575b5f80fd5b6100c86100c3366004610ac2565b6101f4565b6040516100e29e9d9c9b9a99989796959493929190610b32565b60405180910390f35b6003545b6040519081526020016100e2565b6100ef60035481565b610119610114366004610c69565b61037f565b005b6101196105fb565b610151610131366004610ac2565b6001600160a01b03165f908152600160205260409020600d015460ff1690565b60405190151581526020016100e2565b5f546001600160a01b03165b6040516001600160a01b0390911681526020016100e2565b610198610193366004610d14565b61060e565b6040516100e29190610d34565b6101b86101b3366004610ac2565b610748565b6040516100e29190610d80565b61016d6101d3366004610e61565b6109e2565b6100ef60045481565b6101196101ef366004610ac2565b610a0a565b6001602052805f5260405f205f91509050805f015f9054906101000a90046001600160a01b03169080600101549080600201549080600301549080600401549080600501549080600601549080600701549080600801549080600901805461025b90610e78565b80601f016020809104026020016040519081016040528092919081815260200182805461028790610e78565b80156102d25780601f106102a9576101008083540402835291602001916102d2565b820191905f5260205f20905b8154815290600101906020018083116102b557829003601f168201915b50505050509080600a0180546102e790610e78565b80601f016020809104026020016040519081016040528092919081815260200182805461031390610e78565b801561035e5780601f106103355761010080835404028352916020019161035e565b820191905f5260205f20905b81548152906001019060200180831161034157829003601f168201915b50505050600b830154600c840154600d909401549293909290915060ff168e565b335f908152600160205260409020600d015460ff16156103d85760405162461bcd60e51b815260206004820152600f60248201526e105b1c9958591e4818db185a5b5959608a1b60448201526064015b60405180910390fd5b60648311156104195760405162461bcd60e51b815260206004820152600d60248201526c496e76616c69642073636f726560981b60448201526064016103cf565b604080516101c0810182523380825260208083018e81528385018e8152606085018e8152608086018e815260a087018e815260c088018e815260e089018e81526101008a018e81526101208b018e81526101408c018e9052426101608d0152436101808d015260016101a08d018190525f9b8c52998a90529b9099208a5181546001600160a01b0319166001600160a01b0390911617815596519787019790975593516002860155915160038501555160048401555160058301555160068201559051600782015590516008820155915190919060098201906104fc9082610efc565b50610140820151600a8201906105129082610efc565b50610160820151600b820155610180820151600c8201556101a090910151600d909101805491151560ff19909216919091179055600280546001810182555f9182527f405787fa12a823e0f2b7631cc41b3ba8828b3321ca811111fa75cd3aa3bb5ace0180546001600160a01b03191633179055600380549161059483610fd0565b91905055505a60045f8282546105aa9190610fe8565b909155505060405133907fb67277b527e4e1ece0fb72ff7c743c609684b7669a89d6cc90f96b39a854eefd906105e7908d90879087904290610ffb565b60405180910390a250505050505050505050565b610603610a47565b61060c5f610a73565b565b60025460609083106106595760405162461bcd60e51b81526020600482015260146024820152734f6666736574206f7574206f6620626f756e647360601b60448201526064016103cf565b5f6106648385610fe8565b60025490915081111561067657506002545b5f610681858361102a565b90505f8167ffffffffffffffff81111561069d5761069d610bcc565b6040519080825280602002602001820160405280156106c6578160200160208202803683370190505b5090505f5b8281101561073c5760026106df8289610fe8565b815481106106ef576106ef61103d565b905f5260205f20015f9054906101000a90046001600160a01b031682828151811061071c5761071c61103d565b6001600160a01b03909216602092830291909101909101526001016106cb565b50925050505b92915050565b6107b9604051806101c001604052805f6001600160a01b031681526020015f81526020015f81526020015f81526020015f81526020015f81526020015f81526020015f81526020015f815260200160608152602001606081526020015f81526020015f81526020015f151581525090565b6001600160a01b0382165f908152600160205260409020600d015460ff166108155760405162461bcd60e51b815260206004820152600f60248201526e139bdd0818db185a5b5959081e595d608a1b60448201526064016103cf565b6001600160a01b038083165f9081526001602081815260409283902083516101c0810185528154909516855291820154908401526002810154918301919091526003810154606083015260048101546080830152600581015460a0830152600681015460c0830152600781015460e08301526008810154610100830152600981018054610120840191906108a890610e78565b80601f01602080910402602001604051908101604052809291908181526020018280546108d490610e78565b801561091f5780601f106108f65761010080835404028352916020019161091f565b820191905f5260205f20905b81548152906001019060200180831161090257829003601f168201915b50505050508152602001600a8201805461093890610e78565b80601f016020809104026020016040519081016040528092919081815260200182805461096490610e78565b80156109af5780601f10610986576101008083540402835291602001916109af565b820191905f5260205f20905b81548152906001019060200180831161099257829003601f168201915b5050509183525050600b8201546020820152600c8201546040820152600d9091015460ff16151560609091015292915050565b600281815481106109f1575f80fd5b5f918252602090912001546001600160a01b0316905081565b610a12610a47565b6001600160a01b038116610a3b57604051631e4fbdf760e01b81525f60048201526024016103cf565b610a4481610a73565b50565b5f546001600160a01b0316331461060c5760405163118cdaa760e01b81523360048201526024016103cf565b5f80546001600160a01b038381166001600160a01b0319831681178455604051919092169283917f8be0079c531659141344cd1fd0a4f28419497f9722a3daafe3b4186f6b6457e09190a35050565b5f60208284031215610ad2575f80fd5b81356001600160a01b0381168114610ae8575f80fd5b9392505050565b5f81518084525f5b81811015610b1357602081850181015186830182015201610af7565b505f602082860101526020601f19601f83011685010191505092915050565b60018060a01b038f1681528d60208201528c60408201528b60608201528a60808201528960a08201528860c08201528760e0820152866101008201526101c06101208201525f610b866101c0830188610aef565b828103610140840152610b998188610aef565b9150508461016083015283610180830152610bb96101a083018415159052565b9f9e505050505050505050505050505050565b634e487b7160e01b5f52604160045260245ffd5b5f82601f830112610bef575f80fd5b813567ffffffffffffffff80821115610c0a57610c0a610bcc565b604051601f8301601f19908116603f01168101908282118183101715610c3257610c32610bcc565b81604052838152866020858801011115610c4a575f80fd5b836020870160208301375f602085830101528094505050505092915050565b5f805f805f805f805f806101408b8d031215610c83575f80fd5b8a35995060208b0135985060408b0135975060608b0135965060808b0135955060a08b0135945060c08b0135935060e08b013592506101008b013567ffffffffffffffff80821115610cd3575f80fd5b610cdf8e838f01610be0565b93506101208d0135915080821115610cf5575f80fd5b50610d028d828e01610be0565b9150509295989b9194979a5092959850565b5f8060408385031215610d25575f80fd5b50508035926020909101359150565b602080825282518282018190525f9190848201906040850190845b81811015610d745783516001600160a01b031683529284019291840191600101610d4f565b50909695505050505050565b60208152610d9a6020820183516001600160a01b03169052565b602082015160408201526040820151606082015260608201516080820152608082015160a082015260a082015160c082015260c082015160e08201525f60e08301516101008181850152808501519150506101208181850152808501519150506101c06101408181860152610e136101e0860184610aef565b9250808601519050610160601f198685030181870152610e338483610aef565b90870151610180878101919091528701516101a0808801919091529096015115159190940152509192915050565b5f60208284031215610e71575f80fd5b5035919050565b600181811c90821680610e8c57607f821691505b602082108103610eaa57634e487b7160e01b5f52602260045260245ffd5b50919050565b601f821115610ef757805f5260205f20601f840160051c81016020851015610ed55750805b601f840160051c820191505b81811015610ef4575f8155600101610ee1565b50505b505050565b815167ffffffffffffffff811115610f1657610f16610bcc565b610f2a81610f248454610e78565b84610eb0565b602080601f831160018114610f5d575f8415610f465750858301515b5f19600386901b1c1916600185901b178555610fb4565b5f85815260208120601f198616915b82811015610f8b57888601518255948401946001909101908401610f6c565b5085821015610fa857878501515f19600388901b60f8161c191681555b505060018460011b0185555b505050505050565b634e487b7160e01b5f52601160045260245ffd5b5f60018201610fe157610fe1610fbc565b5060010190565b8082018082111561074257610742610fbc565b848152836020820152608060408201525f6110196080830185610aef565b905082606083015295945050505050565b8181038181111561074257610742610fbc565b634e487b7160e01b5f52603260045260245ffdfea26469706673582212202326b81fa2b4f2fb406abeaf26f1d2ee4203e17a934ad0d5e35bfbad729bd80364736f6c63430008180033",
  "linkReferences": {},
  "deployedLinkReferences": {}
}